:1000000012C02CC02BC02AC029C028C027C026C0BF
:1000100025C024C023C022C021C020C01FC01EC0D4
:100020001DC01CC01BC011241FBECFE5D4E0DEBF25
:10003000CDBF10E0A0E6B0E0E2E3FCE102C0059035
:100040000D92A436B107D9F710E0A4E6B0E001C0E4
:100050001D92AD3BB107E1F7E1D7E9CDD1CF92B326
:10006000282F22952F70907F292B22BB31E0932FD0
:100070009A95F1F7959A23E0922F9A95F1F7959832
:1000800092B38F70907F982B92BB3A95F1F7959A27
:100090002A95F1F7959884E18A95F1F782B3807FEC
:1000A00082BB0895959A83E08A95F1F79598089513
:1000B0008DE0C5DC8AE0C3DC08951F93182F949867
:1000C000CEDF103811F0103C09F4F2DF1F910895D3
:1000D00081E0F3DF82EE94E00197F1F7E9DF089524
:1000E00081B38F6381BB8CE49DE10197F1F782B30B
:1000F000807E836082BB959A93E0892F8A95F1F781
:100100009598E2EEF4E03197F1F7959A892F8A9568
:10011000F1F795982AEF30E0F9013197F1F7959AC8
:10012000892F8A95F1F79598F9013197F1F782B304
:10013000807E826082BBF9013197F1F7959A9A959A
:10014000F1F79598C9010197F1F788E2B6DF8CE0E5
:10015000B4DF86E0B2DFBCDF08951F93182F949AB6
:100160007EDF113E61F0123E18F4112331F00BC016
:10017000143E39F0143F39F408C083E205C084EE20
:1001800003C085EB01C0812F5ADC1F9108950F93A6
:100190001F93CF93DF938C01C0E0D0E0C8018C0F98
:1001A0009D1F18DDDADF2196C830D105B9F7DF9140
:1001B000CF911F910F910895CF93DF93EC01CE0162
:1001C00009DD882329F0803819F0C7DF2196F7CFA1
:1001D000DF91CF910895CF93DF93EC0102C0BDDF93
:1001E000219688818823D9F7DF91CF910895806483
:1001F00087B920E030E040E0369A3699FECF84B1EE
:1002000095B1280F391F4F5F4431B1F7C90164E13F
:1002100070E054DCCB010895482F440F662359F059
:1002200028B381E090E0042E02C0880F991F0A9441
:10023000E2F7282B28BB87B321E030E002C0220F71
:10024000331F4A95E2F7822B87BB84EC99E0019734
:10025000F1F787B32095822387BB662319F088B313
:10026000282328BB08952F923F924F925F926F925E
:100270007F928F929F92AF92BF92CF92DF92EF9236
:10028000FF920F931F93DF93CF93CDB7DEB72997DC
:100290000FB6F894DEBF0FBECDBF782E662EA42E0B
:1002A000A895262F30E03F832E83220F331F3D83F6
:1002B0002C8321E030E0C9010C8002C0880F991F17
:1002C0000A94E2F7D82E87BB18BA472D50E05B831B
:1002D0004A8319010A8002C0220C331C0A94E2F7F7
:1002E000522D5860598354BB55BB82EE94E0019760
:1002F000F1F78A2D60E090DF862D79DF2C0188EC04
:100300004816510430F08A2D61E086DF862D6FDFBC
:100310002C0194E14916510408F4A3C087B39A2D27
:10032000990F02E010E002C0000F111F9A95E2F74A
:10033000802B87BB38E8832E33E1932EC4010197CD
:10034000F1F7862D54DF7C0188B3082B08BBC4016C
:100350000197F1F7862D4BDFA4E6B0E0EA0EFB1E15
:10036000E816F90690F588E085BB21E030E0C90188
:100370000E8002C0880F991F0A94E2F7886084BB40
:1003800097B38A81880F02C0220F331F8A95E2F744
:10039000922B97BB88B3282B28BBC4010197F1F798
:1003A0008A2D25DF8152934020F083E080936800FE
:1003B00004C083E08093680085E080936700A0928A
:1003C0006400709283006092A20088E085BB01E027
:1003D00010E0C8010E8002C0880F991F0A94E2F74E
:1003E000886084BB97B38A81880F02C0000F111FF9
:1003F0008A95E2F7802F902B97BB98B3892B88BB07
:1004000028E8822E23E1922EC4010197F1F7872D6F
:10041000EEDE7C0108BBC4010197F1F7872DE7DE12
:100420008C599F4F8E159F05E0F4E981E5BBE4BB35
:10043000C4010197F1F78A2DDADE883C910528F492
:1004400083E08093680084E004C083E080936800C8
:1004500086E080936700A0926400609283007092AF
:10046000A200D7BA18BAF981F4BBF5BB92EE892E77
:1004700094E0992EC4010197F1F728EC421651043B
:1004800008F0CCC1EA2CEE0C27B301E010E0C80163
:100490000E2C02C0880F991F0A94E2F7982E282B81
:1004A00027BB84EF91E00197F1F7862DA0DE8D5BED
:1004B000924008F48EC0D7BA87B3E3940E2C02C0E2
:1004C000000F111F0A94E2F7EA94802B87BB84EC9B
:1004D00099E00197F1F7862D8ADE8C018A2D87DE5F
:1004E0009C0190916800892F8250823018F481E03D
:1004F00080936500E0916500F0E0EE0FFF1FDF01E3
:10050000A456BF4F0D931C93E457FF4F31832083B4
:10051000953009F45EC0293C310530F082E08093CB
:100520006800809367004FC044E14416510408F00E
:100530004AC083E08093680082E08093670081E096
:1005400090E00E8002C0880F991F0A94E2F7082FEE
:1005500017B38A2D806487B910929A00109299007F
:10056000109264001FC0A8958A2D61E055DE83B308
:100570008023E9F317BA369A3699FECF84B195B144
:100580002091990030919A0021503C4F281B390B43
:1005900030939A002093990017BB809164008F5F7D
:1005A00080936400809164008D30E8F2209199007E
:1005B00030919A00C901880F991F820F931F909361
:1005C0009A0080939900A0926400609283007092D8
:1005D000A20088E085BB2A81220F81E090E0DC0147
:1005E00002C0AA0FBB1F2A95E2F7B987A887288502
:1005F000292927BB28BB0E8002C0880F991F0A94A7
:10060000E2F718E0812E882A84BA04EC19E0C801C8
:100610000197F1F7872DEBDD845F914008F0FAC078
:1006200080916500813009F4E3C2E885E8BBC80128
:100630000197F1F7F885F7BBB2EECB2EB4E0DB2ED5
:10064000C6010197F1F7872DD2DD8C0118BAC601DA
:100650000197F1F7288528BBC6010197F1F7872D8F
:10066000C6DD045F114008F049C08558934008F486
:1006700045C085E08093680017BA18BA85BAC601EC
:100680000197F1F7588557BBC6010197F1F7872D00
:10069000AEDDC39708F0B8C087B3982A97BAC601F1
:1006A0000197F1F78A2DA3DD883C910508F4ACC0D1
:1006B000872D9DDD8639910508F4A6C0888587BB06
:1006C000C6010197F1F7872D92DD8639910508F46F
:1006D0009BC0988598BBC6010197F1F718BAC6016F
:1006E0000197F1F7872D83DDC39708F08DC084E073
:1006F0008093680081E08093650086C027B3E3940F
:1007000081E090E002C0880F991FEA94E2F7282B5D
:1007100027BB28B3822B88BB84ED90E30197F1F7C8
:10072000872D65DD8C018A2D62DDAC01809168002A
:100730008250823018F481E080936500E09165007A
:10074000F0E0EE0FFF1FDF01A456BF4F8FEF93E0E5
:100750009C01201B310B2D933C93E457FF4F841BCE
:10076000950B91838083445F514038F482E08093FD
:10077000680081E08093670047C0B4E14B165104E4
:1007800008F042C083E08093680081E080936700B6
:1007900017B3022D8A2D806487B910929A001092A7
:1007A0009900109264001FC0A8958A2D60E034DD86
:1007B00083B38023E9F717BA18BA369A3699FECF71
:1007C00084B195B12091990030919A00280F391F7A
:1007D00030939A002093990017BB18BB8091640056
:1007E0008F5F80936400809164008D30E8F22091E7
:1007F000990030919A00C901880F991F820F931FA9
:1008000090939A0080939900A09264007092830064
:100810006092A20088E084BB85BBE6C00A811B8190
:10082000000F111F62E0E62EF12C002E02C0EE0C2C
:10083000FF1C0A94E2F781E090E0FC0102C0EE0F99
:10084000FF1F0A95E2F78F0128E025BB0E8002C04A
:10085000880F991F0A94E2F7886084BB8A2D61E0B3
:10086000DBDCC4010197F1F7872DC1DC6C01862D1B
:10087000BEDCC81AD90AE7BAE8BAC4010197F1F791
:10088000872DB5DC1C01862DB2DC2C0107BB08BB13
:100890008A2D60E0C1DCC4010197F1F7872DA7DC48
:1008A0005C01862DA4DCA81AB90AE7BAE8BAC4012B
:1008B0000197F1F7872D9BDC8C01862D98DCAC1419
:1008C000BD0420F441018418950804C04801881A29
:1008D000990A6501C6014F978759934008F084C073
:1008E00080916800882311F0863019F481E08093AC
:1008F000680020916600E22FF0E0EE0FFF1FEE0F80
:10090000FF1FDF01AD55BF4F7C9211966C92EB55E6
:10091000FF4F86E390E0AC01C49EC001C59E900DE0
:10092000D49E900D11246BE070E0C8D87183608371
:10093000122F1F5F1093660036E0880C991C3A95C1
:10094000E1F7C60165E070E0B9D86B0170E047C01F
:10095000E72FF0E0EE0FFF1FEE0FFF1FED55FF4FEB
:1009600080818615D9F581818715C1F58C149D0488
:10097000A8F5672F412F50E04150504029C0F501A4
:100980003196AA0CBB1CAA0CBB1C95012D553F4FE0
:10099000EE0FFF1FEE0FFF1F03EA402E00E0502E68
:1009A0004E0E5F1ED2018C91D9018C93D20111960B
:1009B0008C91D90111968C9325EA30E0A20EB31EDA
:1009C000E20FF31F80819181D5018D939C936F5F1E
:1009D000A62EBB24A416B50694F212507F5F7117A1
:1009E00008F4B6CF109366002A813B81220F331F93
:1009F00032E0E32EF12C6701022E02C0CC0CDD1C8C
:100A00000A94E2F701E010E0F80102C0EE0FFF1FC8
:100A10002A95E2F788E085BBC8010E8002C0880FE6
:100A2000991F0A94E2F7886084BBE7BBE8BB862D78
:100A3000DEDB5C01872DDBDB4C018A189B08C7BA23
:100A4000C8BA862DD4DB6C01872DD1DB2C014C1864
:100A50005D080C8002C0EE0CFF1C0A94E2F70C80CB
:100A600002C0000F111F0A94E2F7F981F4BBF5BB35
:100A700018BA07BB872DBBDB850101501C4F081B33
:100A8000190BE7BA872DB3DBF601E150FC4FE81BE9
:100A9000F90BC401801B910B8458934030F4C201C0
:100AA0008E1B9F0B459708F0A3C0C20125E0880F5D
:100AB000991F2A95E1F76FE170E000D86815790574
:100AC00008F096C080916800823018F0863009F0F6
:100AD0008FC06091BB00663009F06CC08091BC0093
:100AE000861509F067C080916F00871509F062C014
:100AF00040919400509195009401220F331F280DCE
:100B0000391D220F331F285A3D4FCA01880F991FE4
:100B1000880F991F840F951F8C509E4F28173907F7
:100B200008F443C09A01220F331F240F351F220FF0
:100B3000331F285A3D4FC401880F991F880F991FF2
:100B4000880D991D8C509E4F2817390770F14091E0
:100B50009600509197009201220F331F240D351DEE
:100B6000220F331F285A3D4FCA01880F991F880F43
:100B7000991F840F951F8C509E4F28173907A8F096
:100B80009A01220F331F240F351F220F331F285ABB
:100B90003D4FC201880F991F880F991F840D951D25
:100BA0008C509E4F2817390718F41092BB0020C0B4
:100BB0006093680090929500809294005092970004
:100BC000409296008FEF93E09C01201B310B3093F5
:100BD000800020937F008E1B9F0B90938200809358
:100BE00081007092BC0060926F0086E08093BB0031
:100BF00088E084BB85BB17BA18BA29960FB6F8945B
:100C0000DEBF0FBECDBFCF91DF911F910F91FF903F
:100C1000EF90DF90CF90BF90AF909F908F907F909C
:100C20006F905F904F903F902F900895EF92FF92BA
:100C30001F93CF93DF93EC01162F633088F461305C
:100C400039F480E690E0C7DA80E387DA888106C06D
:100C500080E690E0C0DA888180DA89817EDA1CC083
:100C600010926500E42EFF2413C090E002968E15CA
:100C70009F0511F48EE271DA80916500FE01E80FA4
:100C8000F11D80816ADA809165008F5F8093650035
:100C900080916500811748F3DF91CF911F91FF90FC
:100CA000EF9008959F92AF92BF92CF92DF92EF9212
:100CB000FF920F931F93CF93DF93B82EA62E8091B0
:100CC0006800873009F492C1CB2CDD24C601880F5F
:100CD000991F42E050E0082E02C0440F551F0A94AD
:100CE000E2F74093780021E030E0B90102C0660FDE
:100CF000771F8A95E2F7962E60936A0088E085BB9D
:100D000018BA17BA0A2C02C0220F331F0A94E2F74E
:100D100068E0E62EE22AE4BA47BB02EE14E0C8011E
:100D20000197F1F78B2D63DA90938500809384000F
:100D30008B2D61E071DA8B2D5ADA909389008093C4
:100D40008800C8010197F1F78B2D51DA9093870045
:100D500080938600A89520918400309185002F5FB4
:100D60003F4F2817390740F0809188009091890003
:100D70002817390708F03AC180916A0087BBC0E0A4
:100D8000D0E0FF2407C0A895219621F4F3947EE1DA
:100D9000F71649F08B2D2BDA8C018A2D28DA0A966A
:100DA0008017910780F380916A0088BB82EE94E0FF
:100DB0000197F1F78B2D1BDA9093890080938800BF
:100DC00080E29EE40197F1F78B2D11DA9C0190935C
:100DD0008B0080938A00809188009091890003960F
:100DE0002817390728F483E02235380708F4FEC0B5
:100DF00080916600882341F0275B334028F0809182
:100E00006800833009F0F2C018BAC0E0D0E0FF24D7
:100E100007C0A895219621F4F3947EE1F71649F0D6
:100E20008B2DE5D98C018A2DE2D90A96801791077E
:100E300080F38FE084BB80916A0088BB81E090E002
:100E400002C0880F991FCA94E2F7982F80936A0016
:100E5000E4EFF1E03197F1F7E4BAC0E0D0E0DD244F
:100E600008C0A895219629F4D3948EE1D81609F4E8
:100E70004BC083B38923A9F3CD2CDD2009F044C0F6
:100E8000CF3FD10511F008F03FC0E4BA18BAFF24F3
:100E9000C0E0D0E007C0A895219621F4F3946EE15C
:100EA000F61649F08B2DA3D98C018A2DA0D90A966C
:100EB0008017910780F38FE084BB88E085BB809129
:100EC000780087BB88BB84EF91E00197F1F78091B0
:100ED0006800833059F480916A008095877088603B
:100EE00084BB90916A00C0E0D0E00AC0E4BAF9CFB8
:100EF000A895219629F4C3947EE1C71609F487C00A
:100F000083B38923A9F383C08AE090E06BD67C0188
:100F100000E010E088EE93E0A0E0B0E080936B008A
:100F200090936C00A0936D00B0936E00CD2C13C015
:100F3000C530D10508F45AC07C0100E010E081E022
:100F400090E0A0E0B0E080936B0090936C00A093E1
:100F50006D00B0936E006C2D70E080E090E0CB01EE
:100F6000772766279E0140E050E0620F731F841FC1
:100F7000951FA801970183D524E630E040E050E0BA
:100F8000B1D560916B0070916C0080916D00909173
:100F90006E0075D560936B0070936C0080936D004C
:100FA00090936E0087E080936800B0929B00A092BF
:100FB000690097BA18BAC0E0D0E0FF2407C0A8952E
:100FC000219621F4F3948EE1F81649F08B2D0FD978
:100FD0008C018A2D0CD90A968017910780F38FE037
:100FE00084BB85BB84EC99E00197F1F788E084BB72
:100FF00085BB17BA18BADF91CF911F910F91FF905F
:10100000EF90DF90CF90BF90AF909F90089588E0D1
:1010100090E0E8D5CC2009F48BCF8ECF2F923F9271
:101020004F925F926F927F928F929F92AF92BF92F8
:10103000CF92DF92EF92FF920F931F93CF93DF93A4
:1010400080E481BB80EC82BB83E886B949D886E026
:1010500090E0C8D5EC0184E090E0C4D52C0180E09C
:1010600090E0B8D5482F50E09A012C70307035953B
:101070002795359527952093A0008370809398003D
:101080004073507094E0559547959A95E1F74093D9
:10109000A10088E10FB6F89481BD11BC0FBE04B663
:1010A00003FE0DC08CE491E087D880E395E729E149
:1010B00030E0F9013197F1F70197D9F759C080E491
:1010C000FCD785E591E063D880E8F7D7BE0180E0E2
:1010D00090E024E630E040E050E0D1D45B016C01C8
:1010E00080E7282E80E0382E32018824992404C01D
:1010F00090939D0080939C002FE088E190E00FB6D4
:10110000F894A89581BD0FBE21BD10926800109281
:10111000BB0010926600109265001092670010925A
:101120009B0010926900D4D788E084BBC1D785E8C2
:101130005ED885E85CD890939D0080939C008A5887
:10114000924088F58EE190E037D880919C00909194
:101150009D008855924010F580E390E02DD880E105
:1011600097E229E130E0F9013197F1F70197D9F7DA
:1011700012BA80E090E0DF91CF911F910F91FF9024
:10118000EF90DF90CF90BF90AF909F908F907F9027
:101190006F905F904F903F902F90089588E290E07D
:1011A0000BD880EC8AD78CE090E006D880E061E034
:1011B00042E059D880E062E041E055D881E060E04B
:1011C00042E051D881E062E040E04DD882E061E049
:1011D00040E049D882E060E041E045D88091680075
:1011E000882321F0863011F0813051F52091A10043
:1011F000222331F118BA85E187BB84EC99E001978D
:10120000F1F717BA213051F48091A0006091980055
:1012100049DD809198006091A00011C082E060E0FB
:1012200041DD82E061E03EDD81E062E03BDD81E0C6
:1012300060E038DD80E062E035DD80E061E032DDF5
:1012400047D780916800813009F0C4C08091660062
:10125000813019F58CE690E0AFD780E491E0ACD70F
:101260008091A3008F5C79D785EB90E0A5D7809122
:10127000A4008F5C72D780EC20D785E391E09CD7E7
:101280008091A5009091A60060E770E04AE050E0F0
:101290004BD4A1D78DE391E094C3823009F052C0C2
:1012A0003091A3002091A7003217E1F484E790E089
:1012B00083D786E491E080D780ECFFD680E491E08C
:1012C0007BD78091A3008F5C48D786EA90E074D7E3
:1012D0008091A4008F5C41D78BEA90E06DD780911C
:1012E000A8003AC28091A4009091A8008917E1F467
:1012F00084E790E061D789E491E05ED780ECDDD6A9
:1013000089EB90E059D78091A4008F5C26D786E0C6
:1013100091E052D78091A3008F5C1FD78BE091E0C2
:101320004BD78091A70018C2821709F03CC39317CE
:1013300009F039C383E890E03FD780ECBED68CE853
:1013400090E03FC3833009F02EC380936400809304
:1013500083009091A3008091A700981721F08091BD
:10136000AB00981711F4909364009091A7008091BE
:10137000AB00981711F4909364009091A4008091B1
:10138000A800981721F08091AC00981711F4909361
:1013900083009091A8008091AC00981711F490936D
:1013A000830080916400833008F0FDC28091830047
:1013B000833008F0F8C283E890E0FED680EC7DD65A
:1013C0008AE990E0F9D6809164008F5CC6D685EBFF
:1013D00090E0BFC1823009F0F3C08091650088239E
:1013E00081F480919C0090919D0090939F00809348
:1013F0009E0080918C0090918D0090938F0080933F
:101400008E0020919C0030919D0080919E009091D3
:101410009F0082179307A0F430939F0020939E00B3
:1014200080918C0090918D0090938F0080938E001E
:10143000909183008091A200809383009093A200FA
:1014400080916700813019F48CE191E002C080E264
:1014500091E0B2D684E291E0AFD6809164008F5CD7
:101460007CD688E291E0A8D6809183008F5C75D607
:101470008CE291E0A1D68091A2008F5C6ED680ECC8
:101480001CD6C601B501A40193012CD3CA01B90130
:1014900020919E0030919F0040E050E0F0D2609398
:1014A00090007093910080939200909393008091AC
:1014B0008E0090918F000B9730F48BE090E090932A
:1014C0008F0080938E0020918E0030918F0040E03D
:1014D00050E0609190007091910080919200909105
:1014E000930000D32093900030939100409392009A
:1014F00050939300C90120939E0090939F0087E131
:1015000091E05AD680919E0090919F0060E770E034
:101510004AE050E04BD35FD687ECCFD58091660090
:10152000833010F080E001C080E217D61092830073
:101530003FC0A22FB0E0FD01EE0FFF1FEE0FFF1F17
:10154000ED55FF4F41813091A200431749F490813E
:1015500080916400981721F480916700813089F0B0
:10156000AA0FBB1FAA0FBB1FAD55BF4F8C9183178E
:10157000E1F4809164004817C1F4809167008230E3
:10158000A1F485E391E018D6E0918300F0E0EE0F3E
:10159000FF1FEE0FFF1FEB55FF4F8081918160E72A
:1015A00070E04AE050E0C0D2A5C02F5F20938300D6
:1015B0002091830080916600281708F4BACF14C2E6
:1015C000833009F09AC08091670080FF02C08EE4EA
:1015D00001C080E5C2D590916700892F8350823089
:1015E00018F48DEF90E008C09550923018F480E028
:1015F00091E005C08AEF90E0DFD585EF90E0DCD583
:10160000809167008330D8F583E191E0D5D5809152
:1016100064006091A20046DB80916B0090916C00A9
:1016200090939D0080939C008330910528F0039750
:1016300090939D0080939C0080919C0090919D00D0
:1016400069E770E04AE050E0B1D2E9E7F0E00190EC
:101650000020E9F73197E957F040E0936A00E09302
:101660007800E53018F084E080936A0089E790E024
:1016700060916A0040917800D9DA8EE66ED580ECF0
:101680001CD580E391E098D5809164008F5C65D58E
:10169000809183008F5C61D58091A2008F5C5DD5C5
:1016A00080916600882331F080916700833010F4C8
:1016B00080E001C080E251D580916700833008F05E
:1016C00093C18091990090919A00E3E09695879557
:1016D000EA95E1F790939A008093990089E391E06D
:1016E0006BD58091990090919A0060E770E04AE094
:1016F00050E05CD270D58DE676C1853099F482ECED
:1017000090E05AD580ECD9D480EB90E055D580910B
:1017100064008F5C22D5809183008F5C1ED5809100
:10172000A2001AC08430D1F48CEB90E045D580EC57
:10173000C4D483E491E040D5809164008F5C0DD5E2
:1017400086E091E039D58091A2008F5C06D58BE0D0
:1017500091E032D5809183008F5C45C1863009F0DD
:10176000CDC08AED90E028D58091BC008F5CF5D487
:101770008DE2F3D480916F008F5CEFD480EC9DD428
:10178000209194003091950082E02130380738F0A4
:101790002050324030939D0020939C0008C080E090
:1017A00092E0821B930B90939D0080939C0020916C
:1017B00096003091970082E02130380738F02050B1
:1017C000324030939F0020939E0008C080E092E05A
:1017D000821B930B90939F0080939E0020919C000E
:1017E00030919D0080919E0090919F0082179307F9
:1017F000A8F4809181009091820090938000809362
:101800007F0080919600909197009093950080932F
:101810009400D0939700C093960004C05092970014
:10182000409296008091940090919500892B31F41C
:1018300081E090E09093950080939400E090940074
:10184000F090950000E010E0209196003091970014
:1018500040E050E0C801B70112D120917F003091E3
:10186000800040E050E02E193F09400B510B3AD167
:10187000CA0120939000309391004093920090937E
:101880009300B90140E750E02AE030E06CD180914C
:101890009600909197008C179D0759F5F1010190E2
:1018A0000020E9F73197E057F040E093BC00109238
:1018B0006F0016C0F0E0E059FF4F80814ED42091B8
:1018C0006F0030E08091BC0090E002972817390744
:1018D00011F48EE242D480916F008F5F80936F008D
:1018E000E0916F008091BC00E81720F38BE635D4BF
:1018F00003C080E790E06FD484EF75C0873009F0B3
:1019000052C087EE90E058D480919B008F5C25D424
:101910008DE223D4809169008F5C1FD480ECCDD3FD
:101920008EE68093780060916B0070916C008091DE
:101930006D0090916E00603A26E8720721E0820700
:1019400020E0920780F028EE33E040E050E0CAD07B
:1019500020936B0030936C0040936D0050936E00A9
:1019600084EE8093780060916B0070916C008091A0
:101970006D0090916E0040E750E02AE030E0F3D037
:10198000F10101900020E9F73197E057F040E09332
:101990006A0080E790E06E2F4E2F48D98091780042
:1019A000DCD386E420C080916600882361F489E35B
:1019B00090E002D480EC81D38AE490E0FDD387E507
:1019C00090E0FAD311C087E590E0F6D382E690E08C
:1019D000F3D380EC72D38CEC90E0EED38091660070
:1019E000805DBBD380E0B9D3879BFECF80E593ECCD
:1019F0000197F1F710929D0010929C0080E090E01A
:101A00004AEF50E00AC09C012F5F3F4F879B70CB8D
:101A1000A895CA010197F1F7C90127E28031920721
:101A200090F390939D0080939C00969888E10FB668
:101A3000F89481BD11BC0FBE8799FECF5DCB2F936B
:101A40005FB72F932AE08095089410F4AB9802C0FA
:101A5000AB9A000008D007D086952A95B1F72F9150
:101A60005FBF2F9108955F935FB75F9300005EE3C0
:101A70005A95F1F700005F915FBF5F910895629FF3
:101A8000D001739FF001829FE00DF11D649FE00D76
:101A9000F11D929FF00D839FF00D749FF00D659FD7
:101AA000F00D9927729FB00DE11DF91F639FB00DD6
:101AB000E11DF91FBD01CF0111240895AA1BBB1B15
:101AC00051E107C0AA1FBB1FA617B70710F0A61B3E
:101AD000B70B881F991F5A95A9F780959095BC015F
:101AE000CD010895A1E21A2EAA1BBB1BFD010DC05A
:101AF000AA1FBB1FEE1FFF1FA217B307E407F507BE
:101B000020F0A21BB30BE40BF50B661F771F881F99
:101B1000991F1A9469F760957095809590959B012F
:101B2000AC01BD01CF010895FB019F01E894423053
:101B3000BCF04532ACF44A3029F497FB1EF4909582
:101B400081959F4F642F7727B9DF805D8A330CF032
:101B5000895D8193CB010097A9F716F45DE251935B
:101B60001082C90144C0FA01CF93FF93EF93223052
:101B7000C4F02532B4F4C22F2C2F33274427552725
:101B8000FF93EF93AFDFEF91FF91605D6A330CF04D
:101B9000695D6193B901CA01605070408040904016
:101BA00059F710828F919F91CF9121C0FB019F0126
:101BB00042306CF045325CF4642F77277FDF805D24
:101BC0008A330CF0895D8193CB010097A9F71082CD
:101BD000C9010DC0E199FECF9FBB8EBBE09A99274A
:101BE0008DB30895A8E1B0E042E050E012C0DC01FE
:101BF000FC01672F71917723E1F7329704C07C9144
:101C00006D9370836291AE17BF07C8F30895DC012E
:101C1000CB01FC01E199FECF06C0FFBBEEBBE09A11
:101C200031960DB20D9241505040B8F70895F89496
:021C3000FFCFE4
:041C3200302E000050
:00000001FF
