:1000000012C02CC02BC02AC029C028C027C026C0BF
:1000100025C024C023C022C021C020C01FC01EC0D4
:100020001DC01CC01BC011241FBECFE5D4E0DEBF25
:10003000CDBF10E0A0E6B0E0EAEBFBE102C0059026
:100040000D92A638B107D9F710E0A6E8B0E001C0DC
:100050001D92AA3DB107E1F753D8ADCDD1CF92B3F0
:10006000282F22952F70907F292B22BB31E0932FD0
:100070009A95F1F7959A23E0922F9A95F1F7959832
:1000800092B38F70907F982B92BB3A95F1F7959A27
:100090002A95F1F7959884E18A95F1F782B3807FEC
:1000A00082BB08959498DBDF0895949AD8DF089571
:1000B000959A83E08A95F1F79598089581E0F2DFAB
:1000C00082EE94E00197F1F7089581B38F6381BBCD
:1000D0008CE49DE10197F1F782B3807E836082BB5F
:1000E000959A93E0892F8A95F1F79598E2EEF4E0DE
:1000F0003197F1F7959A892F8A95F1F795982AEF1C
:1001000030E0F9013197F1F7959A892F8A95F1F747
:100110009598F9013197F1F782B3807E826082BBB6
:10012000F9013197F1F7959A9A95F1F79598C901E8
:100130000197F1F788E2B6DF8CE0B4DF86E0B2DF4A
:10014000BDDF0895CF93DF93EC0102C0AEDF2196AF
:1001500088818823D9F7DF91CF910895CF93DF93DA
:10016000EC01CE0110DD882319F09FDF2196F9CF35
:10017000DF91CF910895806487B920E030E040E0BE
:10018000369A3699FECF84B195B1280F391F4F5F4B
:100190004431B1F7C90164E170E069DCCB01089535
:1001A000482F440F662359F028B381E090E0042ED5
:1001B00002C0880F991F0A94E2F7282B28BB87B347
:1001C00021E030E002C0220F331F4A95E2F7822B74
:1001D00087BB84EC99E00197F1F787B320958223E0
:1001E00087BB662319F088B3282328BB08958F9214
:1001F0009F92AF92BF92CF92DF92EF92FF920F93B6
:100200001F93CF93DF93D82EC62E80918D00D816E2
:1002100029F48091B400681709F479C1AD2CBB248E
:10022000C501880F991F42E050E0082E02C0440F1C
:10023000551F0A94E2F740939E0021E030E0B90197
:1002400002C0660F771F8A95E2F7862E60938E00B4
:1002500015BA18BA17BA0C2C02C0220F331F0A9411
:10026000E2F7922E24BB47BB02EE14E0C8010197CF
:10027000F1F78D2D80DF9093AB008093AA008D2D38
:1002800061E08EDFC8010197F1F78D2D74DF909347
:10029000AD008093AC00A8952091AA003091AB00EE
:1002A0002F5F3F4F2817390708F028C180918E0033
:1002B00087BBFF24C0E0D0E007C0A895219621F4B9
:1002C000F3947EE1F71649F08D2D55DF8C018C2DCE
:1002D00052DF0A968017910780F380918E0088BBC9
:1002E00082EE94E00197F1F78D2D45DF9093AF00FA
:1002F0008093AE0080E29EE40197F1F78D2D3BDF05
:100300009C019093B1008093B0008091AE009091D9
:10031000AF0003962817390728F483E02235380701
:1003200008F4F5C080918A00882321F0275B3340D0
:1003300008F0EDC018BAFF24C0E0D0E007C0A895CF
:10034000219621F4F3947EE1F71649F08D2D13DF09
:100350008C018C2D10DF0A968017910780F387E0BF
:1003600084BB80918E0088BB81E090E002C0880F42
:10037000991FAA94E2F7982F80938E00E4EFF1E0A2
:100380003197F1F794BA60E020E030E008C0A8951A
:100390002F5F3F4F21F46F5F6E3109F43CC083B390
:1003A0008923A9F3E62E6623B1F52F3F310509F025
:1003B00090F518BAFF24C0E0D0E007C0A8952196B8
:1003C00021F4F3948EE1F81649F08D2DD4DE8C01E2
:1003D0008C2DD1DE0A968017910780F387E084BBCD
:1003E00015BA80919E0087BB88BB84EF91E001978E
:1003F000F1F794BA90918E0020E030E008C0A89503
:100400002F5F3F4F21F4E3946EE1E616D9F083B3FA
:100410008923A9F378C088EE93E0A0E0B0E0809350
:100420008F0090939000A0939100B09392007BE195
:10043000E72E71E0F72E012D112D17C02530310563
:1004400008F45CC081E090E0A0E0B0E080938F0011
:1004500090939000A0939100B09392006E2D5AE873
:10046000E52E51E0F52E012D112D70E080E090E099
:10047000CB017727662740E050E0620F731F841F8F
:10048000951FA8019701D4DA24E630E040E050E05F
:1004900002DB60918F0070919000809191009091AB
:1004A0009200C6DA60938F00709390008093910061
:1004B0009093920087E080938C00D092B400C09219
:1004C0008D0087BA18BAFF24C0E0D0E007C0A89515
:1004D000219621F4F3947EE1F71649F08D2D4BDE41
:1004E0008C018C2D48DE0A968017910780F387E0F7
:1004F00084BB85BB84EC99E00197F1F714BA15BA77
:1005000017BA18BA04C0EE2009F498CF9BCFDF9138
:10051000CF911F910F91FF90EF90DF90CF90BF9000
:10052000AF909F908F9008952F923F924F925F923D
:100530006F927F928F929F92AF92BF92CF92DF92F3
:10054000EF92FF920F931F93DF93CF9300D000D0D1
:1005500000D0CDB7DEB7782E662E342EA895262F84
:1005600030E03E832D83220F331F3C832B8381E0B9
:10057000882E912CC4010B8002C0880F991F0A9409
:10058000E2F787BB18BA472D50E05A834983C4016C
:10059000098002C0880F991F0A94E2F7282E84BBB5
:1005A00085BB82EE94E00197F1F7832D60E0F8DDE2
:1005B000862DE1DD449740F0832D61E0F1DD862D4D
:1005C000DADD449708F02BC1B32CBB0C27B301E054
:1005D000E02EF12CC7010B2C02C0880F991F0A9442
:1005E000E2F7082F282B27BB84EF91E00197F1F762
:1005F000862DC1DD8D5B924008F454C097B3802FE7
:100600008095892387BB87B3B3940B2C02C0EE0C73
:10061000FF1C0A94E2F7BA941E2D8E2987BB84EC46
:1006200099E00197F1F7862DA6DD7C01832DA3DDEE
:100630009C0187B31095182317BB90918C00892FCC
:100640008250823060F481E080938700F092BE0097
:10065000E092BD003093BC002093BB0008C0F09234
:10066000A600E092A5003093BA002093B900293C7F
:10067000310530F0953061F082E080938C0006C047
:10068000953031F083E080938C0082E080938B0082
:1006900080918C00853031F0309286006092A90004
:1006A0007092BF0015BA8981880F21E030E0D9012E
:1006B00002C0AA0FBB1F8A95E2F7CA2E802F8A2B91
:1006C00087BB88BB0D8002C0220F331F0A94E2F75C
:1006D00024BB14EC812E19E0912EC4010197F1F78F
:1006E000872D49DD845F914008F096C08091870096
:1006F000813009F42DC388B3902F9095892388BB4E
:10070000F4013197F1F787B3982397BB02EE14E019
:10071000C8010197F1F7872D2EDD7C0198B38C2D50
:100720008095892388BBC4010197F1F788B3C82A53
:10073000C8BAC8010197F1F7872D1DDDE4EFEE1669
:10074000E1E0FE0690F48558934078F080918C00AB
:10075000853039F484E080938C0081E080938700B9
:1007600055C085E080938C0051C087B3B39401E0FD
:1007700010E002C0000F111FBA94E2F7802B87BB74
:1007800088B3802B88BB84ED90E30197F1F7872D28
:10079000F2DC7C01832DEFDCAC0188B30095802373
:1007A00088BB87B3082307BB80918C0082508230BE
:1007B00098F481E0809387008FEF93E09C012E19DD
:1007C0003F093093BE002093BD00841B950B90938E
:1007D000BC008093BB000FC08FEF93E09C012E19EB
:1007E0003F093093A6002093A500841B950B90939E
:1007F000BA008093B900445F514010F482E001C018
:1008000083E080938C0081E080938B00309286009F
:100810007092A9006092BF0014BA15BA85C127B3BF
:10082000332D330F82E090E002C0880F991F3A9574
:10083000E2F7E82E282B27BBB8E8AB2EB3E1BB2E9E
:10084000C5010197F1F7862D96DC8C0188B38E29BE
:1008500088BBC5010197F1F7862D8DDC0C591F4F20
:100860000817190790F515BAC4010D8002C0880F4A
:10087000991F0A94E2F784BB97B38981880F02C05D
:10088000880C991C8A95E2F7882D982997BB98B314
:10089000892B88BBC5010197F1F7832D6CDC815250
:1008A000934020F083E080938C0004C083E0809329
:1008B0008C0085E080938B0081E0809387003092EC
:1008C00086007092A9006092BF0015BA81E090E0A6
:1008D0009C010D8002C0220F331F0A94E2F7C22E42
:1008E00024BBA980BA80AA0CBB1C27B30A2C02C067
:1008F000880F991F0A94E2F7282B27BB28B3822B75
:1009000088BBF8E88F2EF3E19F2EC4010197F1F721
:10091000872D31DC8C0188B3E094E822E8BAC40169
:100920000197F1F7872D27DC8C599F4F801791078E
:10093000F0F425BA24BAC4010197F1F7832D1BDC2A
:10094000883C910528F483E080938C0084E004C007
:1009500083E080938C0086E080938B0081E080931D
:100960008700309286006092A9007092BF0002E07A
:1009700010E00A2C02C0000F111F0A94E2F7E1E018
:10098000EE2EF12C02C0EE0CFF1CAA94E2F715BA71
:10099000C4BA832D61E004DC72EEC72E74E0D72E5A
:1009A000C6010197F1F7872DE6DB5C01862DE3DBBD
:1009B000A81AB90A07BB08BBC6010197F1F7872D32
:1009C000DADB2C01862DD7DB4C01E7BAE8BA832DA0
:1009D00060E0E6DBC6010197F1F7872DCCDB7C01F7
:1009E000862DC9DBE81AF90A07BB08BBC6010197C7
:1009F000F1F7872DC0DB8C01862DBDDBEA14FB04EB
:100A000020F482010819190903C0081B190B5701AA
:100A1000C5014F978759934008F086C080918C009C
:100A2000882311F0863019F481E080938C002091A6
:100A30008A00E22FF0E0EE0FFF1FEE0FFF1FDF0135
:100A4000A054BF4F7C9211966C92EE53FF4F84E3FB
:100A500090E0DC01AA9EC001AB9E900DBA9E900D65
:100A600011246BE070E003D871836083E22EE3947D
:100A7000E0928A00480146E0880C991C4A95E1F70B
:100A8000C50165E070E0F3D78B0170E048C0E72F47
:100A9000F0E0EE0FFF1FEE0FFF1FE054FF4F8081CD
:100AA0008615E1F581818715C9F580169106B0F5A7
:100AB000672F4E2D50E04150504029C0F50131962E
:100AC000AA0CBB1CAA0CBB1C950120543F4FEE0F77
:100AD000FF1FEE0FFF1F80EC482E80E0582E4E0EB9
:100AE0005F1ED2018C91D9018C93D20111968C9109
:100AF000D90111968C9322EC30E0A20EB31EE20FC6
:100B0000F31F80819181D5018D939C936F5FA62EF9
:100B1000BB24A416B50694F2BEEFEB0E7F5F7E15E4
:100B200008F4B5CFE0928A0029813A81220F331F61
:100B300062E0E62EF12C6701022E02C0CC0CDD1C17
:100B40000A94E2F701E010E0F80102C0EE0FFF1F87
:100B50002A95E2F715BAC8010D8002C0880F991FC7
:100B60000A94E2F784BBE7BBE8BB862D04DB5C019B
:100B7000872D01DB4C018A189B08C7BAC8BA862D9D
:100B8000FADA6C01872DF7DA2C014C185D080B801E
:100B900002C0EE0CFF1C0A94E2F70B8002C0000FAB
:100BA000111F0A94E2F724BA25BA18BA07BB872D99
:100BB000E2DA2FEF33E0A20EB31EA81AB90AE7BAA1
:100BC000872DD9DA860101501C4F081B190BC4016F
:100BD0008A199B098458934030F4C201801B910B01
:100BE000459708F0B5C0C20155E0880F991F5A9586
:100BF000E1F76FE170E03BD76815790508F0A8C010
:100C000080918C00823018F0863009F0A1C0A0914C
:100C1000D800A63009F07EC08091D900861509F071
:100C200079C080919300871509F074C06091B2007B
:100C30007091B300EBE0F0E08E9EC0018F9E900DAE
:100C40009E9E900D1124845B9B4F9B01220F331FAE
:100C5000AB01B3E0440F551FBA95E1F7240F351FE0
:100C600028513C4F8217930708F44FC06E9FC00174
:100C70006F9F900D7E9F900D1124845B9B4F94017C
:100C8000220F331FA40163E0440F551F6A95E1F75B
:100C9000240F351F28513C4F82179307B0F1609104
:100CA000A7007091A8004E9EC0014F9E900D5E9EC1
:100CB000900D1124845B9B4F9B01220F331FAB01CE
:100CC000B3E0440F551FBA95E1F7240F351F2851A3
:100CD0003C4F82179307C8F06E9FC0016F9F900D25
:100CE0007E9F900D1124845B9B4F9201220F331F36
:100CF000A201F3E0440F551FFA95E1F7240F351FC9
:100D000028513C4F8217930718F41092D80020C046
:100D1000A0938C009092B3008092B2005092A800F1
:100D20004092A7008FEF93E09C012A193B09309372
:100D3000890020938800801B910B90939D008093E5
:100D40009C007092D9006092930086E08093D80056
:100D500014BA15BA17BA18BA26960FB6F894DEBFA9
:100D60000FBECDBFCF91DF911F910F91FF90EF90FC
:100D7000DF90CF90BF90AF909F908F907F906F90BB
:100D80005F904F903F902F900895EF92FF921F93A6
:100D9000CF93DF93EC01162F633088F4613039F480
:100DA00080E690E0CFD980E380D9888106C080E6D4
:100DB00090E0C8D9888179D9898177D91CC01092EF
:100DC0008700E42EFF2413C090E002968E159F0545
:100DD00011F48EE26AD980918700FE01E80FF11DBF
:100DE000808163D9809187008F5F80938700809195
:100DF0008700811748F3DF91CF911F91FF90EF900B
:100E00000895DF92EF92FF920F931F93CF93DF939A
:100E10008091A900E82FF0E09F01220F331FA1E08D
:100E2000B0E0CD0102C0880F991F2A95E2F79C011E
:100E300010918600612F70E0AB01440F551F82E0D6
:100E400090E002C0880F991F4A95E2F7982F922BE5
:100E500090938E00322F20939E0097BBAD0100909F
:100E6000BF0002C0440F551F0A94E2F7ED01012EA6
:100E700002C0CC0FDD1F0A94E2F7BE01642B64BBF5
:100E800080918C00833009F0DFC080918B0081302D
:100E900009F067C015BA98BBCD0102C0880F991F31
:100EA000EA95E2F7982F80938E00E4ECF9E0319711
:100EB000F1F744BB40E050E020E007C0A8954F5F49
:100EC0005F4F19F42F5F283019F083B38923B1F7EE
:100ED00038BB37BB812F4FD9DC0121E030E0F9016D
:100EE0000090BF0002C0EE0FFF1F0A94E2F740918E
:100EF000860050E0B901042E02C0660F771F0A94E5
:100F0000E2F70090A90002C0220F331F0A94E2F713
:100F10008E2F862B822B84BB15BA440F551F82E07F
:100F200090E002C0880F991F4A95E2F787BB88BB03
:100F3000362F60938E0084EC99E00197F1F72E2B09
:100F400024BBC0E0D0E0DD2408C0A895219629F498
:100F5000D39428E0D21609F470C083B38323A9F395
:100F60006CC0823009F070C065BB18BACD0102C0F8
:100F7000880F991FEA95E2F7982F80938E00E4EC92
:100F8000F9E03197F1F744BB45BB40E050E020E089
:100F900007C0A8954F5F5F4F19F42F5F283019F0F5
:100FA00083B38923B1F337BB812FE5D8DC0121E07E
:100FB00030E0F9010090BF0002C0EE0FFF1F0A945D
:100FC000E2F74091860050E0B901042E02C0660F9E
:100FD000771F0A94E2F70090A90002C0220F331F86
:100FE0000A94E2F78E2F862B822B84BB85BB440F9D
:100FF000551F82E090E002C0880F991F4A95E2F7E2
:1010000087BB18BA362F60938E0084EC99E0019765
:10101000F1F72E2B20939E0024BB25BBC0E0D0E02F
:10102000DD2407C0A895219621F4D39488E0D81632
:10103000A1F083B38323B1F710C053E8E52E51E04C
:10104000F52E012D112D0EC0C0E0D0E0A0E0B0E0E3
:10105000DD24EE24FF24870105C04EE8E42EF12CA8
:10106000012D112D17BA18BA14BA15BA209711F418
:10107000DD20F1F180918B00823031F48FEF93E02D
:101080009C012A1B3B0BD90187E290E09C01A29FA7
:10109000C001A39F900DB29F900D112433E096954F
:1010A00087953A95E1F764E970E04AE050E057D55A
:1010B0006D2D70E080E090E0CB01772766279E01E0
:1010C00040E050E0620F731F841F951FA801970135
:1010D000AFD424E630E040E050E0DDD4C901233055
:1010E000310508F003976FE970E04AE050E037D52A
:1010F000DF91CF911F910F91FF90EF90DF900895B6
:10110000CF92DF92EF92FF920F931F93CF93DF93D3
:1011100080E481BB80EC82BB83E886B9D6D704B675
:1011200003FE0DC08BED90E019D880E395E729E12F
:1011300030E0F9013197F1F70197D9F74BC080E41E
:10114000B1D784EE90E00AD880E8ACD7C4E9D0E00B
:101150007FE9C72E70E0D72E04C09093A60080933D
:10116000A5008FE028E130E00FB6F894A89521BDE6
:101170000FBE81BD10928C001092D80010928A0090
:101180001092870010928B001092B40010928D0084
:1011900095D785E8F0D785E8EED79093A6008093A1
:1011A000A5008A58924038F589E090E0D7D7809121
:1011B000A5009091A60088559240C0F487E190E088
:1011C000CDD780E197E229E130E0F9013197F1F7DD
:1011D0000197D9F712BA80E090E0DF91CF911F918B
:1011E0000F91FF90EF90DF90CF9008958FE090E007
:1011F000B5D780EC57D780E090E0B0D780E061E0D1
:1012000042E092D980E062E041E08ED981E060E086
:1012100042E08AD981E062E040E086D982E061E084
:1012200040E082D982E060E041E07ED980918C008C
:10123000882321F0863011F08130D1F418BA85E18D
:1012400087BB84ED90E30197F1F717BA82E060E085
:10125000CED782E061E0CBD781E062E0C8D781E001
:1012600060E0C5D780E062E0C2D780E061E0BFD730
:10127000C8DD24D780918C00813009F0D9C08091DD
:101280008A008130D9F481E590E068D785ED90E05F
:1012900065D78091C0008F5C08D783E690E052D775
:1012A0008091C1008F5C01D780ECFCD68AEC90E085
:1012B00055D78091C2009091C30066C0823009F07A
:1012C0006CC03091C0002091C4003217E1F489E570
:1012D00090E044D787E690E035D780ECE3D685ED03
:1012E00090E03CD78091C0008F5CDFD68AE690E02A
:1012F00029D78091C1008F5CD8D68FE690E022D7A5
:101300008091C5001FC28091C1009091C5008917CE
:10131000E1F489E590E022D784E790E013D780ECF0
:10132000C1D687E790E00ED78091C1008F5CBDD613
:1013300082EA90E013D78091C0008F5CB6D687EA2E
:1013400090E00CD78091C400FDC1821709F024C33E
:10135000931709F021C386E690E000D780E790E07C
:10136000FDD680EC9FD68091C2009091C30064E9C5
:1013700070E04AE050E0B1D3E5D68AE790E0E2D6EB
:101380008091C6009091C70064E970E04AE050E0A7
:10139000A4D3D8D682ED90E00DC3833009F0FCC20F
:1013A000809386008093A9009091C0008091C40032
:1013B000981721F08091C800981711F49093860037
:1013C0009091C4008091C800981711F49093860002
:1013D0009091C1008091C500981721F08091C900BB
:1013E000981711F49093A9009091C5008091C900BD
:1013F000981711F49093A90080918600833008F02B
:10140000CBC28091A900833008F0C6C286E690E086
:10141000A5D680EC47D685E790E0A0D680918600DF
:101420008F5C43D683E690E08DD68091A9008AC177
:10143000823009F0F0C080918700882381F4809188
:10144000A5009091A6009093BE008093BD0080916E
:10145000B9009091BA009093BC008093BB0020919A
:10146000A5003091A6008091BD009091BE0082172A
:101470009307A0F43093BE002093BD008091B90083
:101480009091BA009093BC008093BB009091A9000A
:101490008091BF008093A9009093BF0080918B0042
:1014A000813019F481EB90E002C085EB90E056D6D4
:1014B00089EB90E053D6809186008F5CF6D58DEB5A
:1014C00090E04CD68091A9008F5CEFD581EC90E044
:1014D00045D68091BF008F5CE8D580ECE3D5609164
:1014E000BD007091BE0080E090E022EB32E040E071
:1014F00050E09ED26093B5007093B6008093B70021
:101500009093B8008091BB009091BC000B9730F491
:101510008BE090E09093BC008093BB002091BB00D7
:101520003091BC0040E050E06091B5007091B60091
:101530008091B7009091B800AED22093B50030935F
:10154000B6004093B7005093B800C9012093BD0086
:101550009093BE008CEA90E001D68091BD009091FE
:10156000BE0064E970E04AE050E0F9D2EBD587ECC8
:1015700099D580918A00833010F080E001C080E22C
:1015800094D51092A9003FC0A22FB0E0FD01EE0F4C
:10159000FF1FEE0FFF1FE054FF4F41813091BF004E
:1015A000431749F4908180918600981721F4809127
:1015B0008B00813089F0AA0FBB1FAA0FBB1FA0545C
:1015C000BF4F8C918317E1F4809186004817C1F4D6
:1015D00080918B008230A1F48AEC90E0BFD5E0913D
:1015E000A900F0E0EE0FFF1FEE0FFF1FEE53FF4FBD
:1015F0008081918164E970E04AE050E06ED272C06F
:101600002F5F2093A9002091A90080918A002817BC
:1016100008F4BACFE2C1833009F067C080918B0033
:1016200080FF02C08EE401C080E53FD590918B0021
:10163000892F8350823018F489E890E008C09550D3
:10164000923018F48CE890E005C086E890E086D5EA
:1016500081E890E083D580918B008330E0F48DEFBA
:1016600090E07CD5F60101900020E9F73197EF5921
:10167000F040E0938E00E0939E00E53018F084E0A7
:1016800080938E008FE990E060918E0040919E00E3
:101690007CDB8EE60AD580EC05D585EC90E05ED546
:1016A000809186008F5C01D58091A9008F5CFDD46C
:1016B0008091BF008F5CF9D480918A00882331F03B
:1016C00080918B00833010F480E001C080E2EDD483
:1016D00080918B00833008F080C18EEC90E03ED585
:1016E00084E990E02FD58DE677C1853089F482E9D1
:1016F00090E034D580ECD6D48CE790E023D580916F
:1017000086008F5CD2D48091A9008F5CCED418C0A3
:101710008430D1F48CE990E021D580ECC3D488EDFD
:1017200090E01CD5809186008F5CBFD482EA90E067
:1017300015D58091A9008F5CB8D487EA90E00ED5CA
:101740008091BF008F5C48C1863009F0D0C08DEE1B
:1017500090E004D58091D9008F5CA7D48DE2A5D408
:10176000809193008F5CA1D480EC9CD481E890E0C0
:10177000E9D42091B2003091B30082E021303807E3
:1017800038F0205032403093A6002093A50008C0C6
:1017900080E092E0821B930B9093A6008093A500BB
:1017A0002091A7003091A80082E02130380738F05E
:1017B000205032403093BE002093BD0008C080E02E
:1017C00092E0821B930B9093BE008093BD0020910A
:1017D000A5003091A6008091BD009091BE008217B7
:1017E000930798F480919C0090919D0090938900BC
:1017F000809388008091A7009091A8009093B300F7
:101800008093B20088E492E102C086EA92E090936D
:10181000A8008093A7008091B2009091B300892B1B
:1018200031F481E090E09093B3008093B200E090B7
:10183000B200F090B30000E010E02091A7003091DA
:10184000A80040E050E0C801B701F2D02091880024
:101850003091890040E050E02E193F09400B510BB8
:101860001AD1CA012093B5003093B6004093B70057
:101870009093B800B90144E950E02AE030E04CD13F
:101880008091A7009091A8008854924159F5FE01DB
:1018900001900020E9F73197E459F040E093D90036
:1018A0001092930016C0F0E0EC56FF4F8081FDD3FC
:1018B0002091930030E08091D90090E002972817A2
:1018C000390711F48EE2F1D3809193008F5F8093FA
:1018D0009300E09193008091D900E81720F38BE604
:1018E000E4D303C084E990E02DD484EF75C0873041
:1018F00009F052C081E091E031D48091B4008F5C56
:10190000D4D38DE2D2D380918D008F5CCED380EC86
:10191000C9D38EE680939E0060918F0070919000F5
:101920008091910090919200603A26E8720721E040
:10193000820720E0920780F028EE33E040E050E09C
:10194000AAD020938F003093900040939100509341
:10195000920084EE80939E0060918F0070919000C1
:10196000809191009091920044E950E02AE030E0AB
:10197000D3D0FE0101900020E9F73197E459F040FF
:10198000E0938E0084E990E06E2F4E2FFED9809177
:101990009E008BD386E420C080918A00882361F466
:1019A0008DE190E0DBD380EC7DD384E290E0D6D370
:1019B0008FE290E0D3D311C08FE290E0CFD388E3E1
:1019C00090E0CCD380EC6ED387E490E0C7D38091D5
:1019D0008A00805D6AD384E668D3879BFECF80E56A
:1019E00093EC0197F1F71092A6001092A50080E009
:1019F00090E04AEF50E00AC09C012F5F3F4F879B69
:101A0000ACCBA895CA010197F1F7C90127E2803153
:101A1000920790F39093A6008093A500969888E192
:101A20000FB6F89481BD11BC0FBE8799FECF99CB3C
:101A3000629FD001739FF001829FE00DF11D649FB2
:101A4000E00DF11D929FF00D839FF00D749FF00D3E
:101A5000659FF00D9927729FB00DE11DF91F639FDF
:101A6000B00DE11DF91FBD01CF0111240895AA1B7E
:101A7000BB1B51E107C0AA1FBB1FA617B70710F079
:101A8000A61BB70B881F991F5A95A9F780959095AB
:101A9000BC01CD010895A1E21A2EAA1BBB1BFD01BA
:101AA0000DC0AA1FBB1FEE1FFF1FA217B307E4073D
:101AB000F50720F0A21BB30BE40BF50B661F771F95
:101AC000881F991F1A9469F7609570958095909575
:101AD0009B01AC01BD01CF010895FB019F01E8947A
:101AE0004230BCF04532ACF44A3029F497FB1EF486
:101AF000909581959F4F642F7727B9DF805D8A335A
:101B00000CF0895D8193CB010097A9F716F45DE293
:101B100051931082C9013FC0FA01CF93FF93EF9315
:101B20002230C4F02532B4F4C22F2C2F332744279F
:101B30005527FF93EF93AFDFEF91FF91605D6A331D
:101B40000CF0695D6193B901CA016050704080403A
:101B5000904059F710828F919F91CF911CC0FB014B
:101B60009F0142306CF045325CF4642F77277FDFB1
:101B7000805D8A330CF0895D8193CB010097A9F7D2
:101B80001082C90108C0E199FECF9FBB8EBBE09ACD
:101B900099278DB30895DC01FC01672F719177239C
:101BA000E1F7329704C07C916D9370836291AE1718
:0A1BB000BF07C8F30895F894FFCFB3
:101BBA00302E003B4B3D004341003B4B313D003B47
:101BCA004B323D004343004B3D002C0047414B3D07
:061BDA000052203D200036
:00000001FF
